:020000040800F2
:100000000050002065260008892400088F2400087D
:10001000952400089B240008A1240008000000008B
:10002000000000000000000000000000A7240008FD
:10003000B324000800000000BF240008CB240008FF
:10004000AD260008AD260008AD260008AD26000844
:10005000AD260008AD260008AD260008AD26000834
:10006000AD260008AD260008AD260008AD26000824
:10007000AD260008AD260008AD260008AD26000814
:10008000AD260008AD260008AD260008AD26000804
:10009000AD260008AD260008AD260008AD260008F4
:1000A000AD260008AD260008AD260008AD260008E4
:1000B000AD260008AD260008AD260008AD260008D4
:1000C000AD260008AD260008AD260008AD260008C4
:1000D000AD260008AD260008AD260008AD260008B4
:1000E000AD260008AD260008AD260008000000007F
:1000F0000000000000000000000000000000000000
:0C01000000000000000000005FF808F1A3
:1001100010B5054C237833B9044B13B10448AFF341
:1001200000800123237010BDD801002000000000D2
:10013000A891000808B5034B1BB103490348AFF36E
:10014000008008BD00000000DC010020A89100082C
:1001500010F8012B11F8013B012A28BF9A42F7D071
:10016000D01A7047034613F8012B002AFBD1181A46
:10017000013870474FF0FF0C1CEAD0521EBF1CEA3A
:10018000D15392EA0C0F93EA0C0F6FD01A4480EA15
:10019000010C400218BF5FEA41211ED04FF00063FE
:1001A00043EA501043EA5111A0FB01310CF000402A
:1001B000B1F5000F3EBF490041EAD3715B0040EA50
:1001C000010062F17F02FD2A1DD8B3F1004F40EB20
:1001D000C25008BF20F00100704790F0000F0CF0F3
:1001E000004C08BF49024CEA502040EA51207F3AB7
:1001F000C2BFD2F1FF0340EAC250704740F4000092
:100200004FF00003013A5DDC12F1190FDCBF00F082
:1002100000407047C2F10002410021FA02F1C2F130
:10022000200200FA02FC5FEA310040F1000053EACC
:100230004C0308BF20EADC70704792F0000F00F01A
:10024000004C02BF400010F4000F013AF9D040EA20
:100250000C0093F0000F01F0004C02BF490011F4B4
:10026000000F013BF9D041EA0C018FE70CEAD153B2
:1002700092EA0C0F18BF93EA0C0F0AD030F0004C32
:1002800018BF31F0004CD8D180EA010000F00040E6
:10029000704790F0000F17BF90F0004F084691F0A4
:1002A000000F91F0004F14D092EA0C0F01D14202DE
:1002B0000FD193EA0C0F03D14B0218BF084608D1A7
:1002C00080EA010000F0004040F0FE4040F40000F1
:1002D000704740F0FE4040F44000704781F000411C
:1002E00002E000BF83F0004330B54FEA41044FEA1B
:1002F000430594EA050F08BF90EA020F1FBF54EAB6
:10030000000C55EA020C7FEA645C7FEA655C00F051
:10031000E2804FEA5454D4EB5555B8BF6D420CDD22
:100320002C4480EA020281EA030382EA000083EAA5
:10033000010180EA020281EA0303362D88BF30BD45
:1003400011F0004F4FEA01314FF4801C4CEA11319B
:1003500002D0404261EB410113F0004F4FEA0333FA
:100360004CEA133302D0524263EB430394EA050F85
:1003700000F0A780A4F10104D5F1200E0DDB02FAF4
:100380000EFC22FA05F2801841F1000103FA0EF288
:10039000801843FA05F359410EE0A5F120050EF14E
:1003A000200E012A03FA0EFC28BF4CF0020C43FA7F
:1003B00005F3C01851EBE37101F0004507D54FF08C
:1003C000000EDCF1000C7EEB00006EEB0101B1F5DC
:1003D000801F1BD3B1F5001F0CD349085FEA300022
:1003E0004FEA3C0C04F101044FEA445212F5800F2D
:1003F00080F09A80BCF1004F08BF5FEA500C50F1CA
:10040000000041EB045141EA050130BD5FEA4C0CAC
:10041000404141EB0101013C28BFB1F5801FE9D209
:1004200091F0000F04BF01460020B1FA81F308BF2C
:100430002033A3F10B03B3F120020CDA0C3208DDF8
:1004400002F1140CC2F10C0201FA0CF021FA02F1D3
:100450000CE002F11402D8BFC2F1200C01FA02F143
:1004600020FA0CFCDCBF41EA0C019040E41AA2BF68
:1004700001EB0451294330BD6FEA04041F3C1CDA30
:100480000C340EDC04F11404C4F1200220FA04F050
:1004900001FA02F340EA030021FA04F345EA0301FA
:1004A00030BDC4F10C04C4F1200220FA02F001FABC
:1004B00004F340EA0300294630BD21FA04F029463E
:1004C00030BD94F0000F83F4801306BF81F48011D7
:1004D0000134013D4EE77FEA645C18BF7FEA655C4A
:1004E00029D094EA050F08BF90EA020F05D054EA1C
:1004F000000C04BF1946104630BD91EA030F1EBF21
:100500000021002030BD5FEA545C05D14000494124
:1005100028BF41F0004130BD14F580043CBF01F517
:10052000801130BD01F0004545F0FE4141F47001FD
:100530004FF0000030BD7FEA645C1ABF19461046D8
:100540007FEA655C1CBF0B46024650EA013406BFD9
:1005500052EA033591EA030F41F4002130BD00BF98
:1005600090F0000F04BF0021704730B54FF4806455
:1005700004F132044FF000054FF0000150E700BFD6
:1005800090F0000F04BF0021704730B54FF4806435
:1005900004F1320410F0004548BF40424FF0000122
:1005A0003EE700BF42004FEAE2014FEA31014FEA65
:1005B00002701FBF12F07F4393F07F4F81F06051B4
:1005C000704732F07F4208BF704793F07F4F04BFFF
:1005D00041F40021704730B54FF4607401F00045DC
:1005E00021F000411CE700BF50EA010208BF70473C
:1005F00030B54FF000050AE050EA010208BF70472D
:1006000030B511F0004502D5404261EB41014FF495
:10061000806404F132045FEA915C3FF4D8AE4FF09D
:1006200003025FEADC0C18BF03325FEADC0C18BF80
:10063000033202EBDC02C2F1200300FA03FC20FAD1
:1006400002F001FA03FE40EA0E0021FA02F114441E
:10065000BDE600BF70B54FF0FF0C4CF4E06C1CEA37
:1006600011541DBF1CEA135594EA0C0F95EA0C0FA8
:1006700000F0DEF82C4481EA030621EA4C5123EA1B
:100680004C5350EA013518BF52EA033541F480114A
:1006900043F4801338D0A0FB02CE4FF00005E1FBFD
:1006A00002E506F00042E0FB03E54FF00006E1FB47
:1006B00003569CF0000F18BF4EF0010EA4F1FF048A
:1006C000B6F5007F64F5407404D25FEA4E0E6D41CA
:1006D00046EB060642EAC62141EA55514FEAC520DB
:1006E00040EA5E504FEACE2EB4F1FD0C88BFBCF557
:1006F000E06F1ED8BEF1004F08BF5FEA500E50F108
:10070000000041EB045170BD06F0004646EA0101CD
:1007100040EA020081EA0301B4EB5C04C2BFD4EBFF
:100720000C0541EA045170BD41F480114FF0000EF8
:10073000013C00F3AB8014F1360FDEBF002001F066
:10074000004170BDC4F10004203C35DA0C341BDCE0
:1007500004F11404C4F1200500FA05F320FA04F0B2
:1007600001FA05F240EA020001F0004221F00041E6
:1007700010EBD37021FA04F642EB06015EEA430E59
:1007800008BF20EAD37070BDC4F10C04C4F1200589
:1007900000FA04F320FA05F001FA04F240EA02003C
:1007A00001F0004110EBD37041F100015EEA430E0D
:1007B00008BF20EAD37070BDC4F1200500FA05F22D
:1007C0004EEA020E20FA04F301FA05F243EA0203AC
:1007D00021FA04F001F0004121FA04F220EA0200BB
:1007E00000EBD3705EEA430E08BF20EAD37070BD01
:1007F00094F0000F0FD101F00046400041EB0101E1
:1008000011F4801F08BF013CF7D041EA060195F0C2
:10081000000F18BF704703F00046520043EB03037C
:1008200013F4801F08BF013DF7D043EA0603704769
:1008300094EA0C0F0CEA135518BF95EA0C0F0CD074
:1008400050EA410618BF52EA4306D1D181EA0301BA
:1008500001F000414FF0000070BD50EA410606BFB4
:100860001046194652EA430619D094EA0C0F02D1F9
:1008700050EA013613D195EA0C0F05D152EA03363E
:100880001CBF104619460AD181EA030101F000415C
:1008900041F0FE4141F470014FF0000070BD41F0A5
:1008A000FE4141F4780170BD70B54FF0FF0C4CF47F
:1008B000E06C1CEA11541DBF1CEA135594EA0C0F9E
:1008C00095EA0C0F00F0A7F8A4EB050481EA030EEB
:1008D00052EA03354FEA013100F088804FEA0333D2
:1008E0004FF0805545EA131343EA12634FEA0222A0
:1008F00045EA111545EA10654FEA00260EF0004161
:100900009D4208BF964244F1FD0404F5407402D2B2
:100910005B084FEA3202B61A65EB03055B084FEA43
:1009200032024FF480104FF4002CB6EB020E75EB40
:10093000030E22BFB61A754640EA0C005B084FEA68
:100940003202B6EB020E75EB030E22BFB61A7546E5
:1009500040EA5C005B084FEA3202B6EB020E75EB30
:10096000030E22BFB61A754640EA9C005B084FEAA8
:100970003202B6EB020E75EB030E22BFB61A7546B5
:1009800040EADC0055EA060E18D04FEA051545EAA4
:1009900016754FEA06164FEAC30343EA52734FEA4D
:1009A000C2025FEA1C1CC0D111F4801F0BD141EAC6
:1009B00000014FF000004FF0004CB6E711F4801F2B
:1009C00004BF01430020B4F1FD0C88BFBCF5E06F0B
:1009D0003FF6AFAEB5EB030C04BFB6EB020C5FEA1B
:1009E000500C50F1000041EB045170BD0EF0004E70
:1009F0004EEA113114EB5C04C2BFD4EB0C0541EAA2
:100A0000045170BD41F480114FF0000E013C90E69E
:100A100045EA060E8DE60CEA135594EA0C0F08BF62
:100A200095EA0C0F3FF43BAF94EA0C0F0AD150EA61
:100A300001347FF434AF95EA0C0F7FF425AF1046F4
:100A400019462CE795EA0C0F06D152EA03353FF41C
:100A5000FDAE1046194622E750EA410618BF52EA99
:100A600043067FF4C5AE50EA41047FF40DAF52EA6D
:100A700043057FF4EBAE12E74FF0FF3C06E000BF0A
:100A80004FF0010C02E000BF4FF0010C4DF804CD17
:100A90004FEA410C7FEA6C5C4FEA430C18BF7FEAD7
:100AA0006C5C1BD001B050EA410C0CBF52EA430C05
:100AB00091EA030F02BF90EA020F0020704710F185
:100AC000000F91EA030F58BF994208BF90422CBF14
:100AD000D8176FEAE37040F0010070474FEA410C0D
:100AE0007FEA6C5C02D150EA013C07D14FEA430C2B
:100AF0007FEA6C5CD6D152EA033CD3D05DF8040B9C
:100B0000704700BF8446104662468C4619466346CD
:100B100000E000BF01B5FFF7B7FF002848BF10F1A4
:100B2000000F01BD4DF808EDFFF7F4FF0CBF0120E9
:100B300000205DF808FB00BF4DF808EDFFF7EAFF65
:100B400034BF012000205DF808FB00BF4DF808ED20
:100B5000FFF7E0FF94BF012000205DF808FB00BF15
:100B60004DF808EDFFF7CEFF94BF012000205DF89F
:100B700008FB00BF4DF808EDFFF7C4FF34BF0120AC
:100B800000205DF808FB00BF4FEA410C7FEA6C5C77
:100B900002D150EA013C0AD14FEA430C7FEA6C5C77
:100BA00002D152EA033C02D14FF0000070474FF0EF
:100BB000010070474FEA410212F5001215D211D51B
:100BC0006FF47873B3EB625212D94FEAC12343F04A
:100BD000004343EA505311F0004F23FA02F018BFCC
:100BE000404270474FF00000704750EA013005D195
:100BF00011F0004008BF6FF0004070474FF0000058
:100C0000704700BF4A0011D212F5001211D20DD563
:100C10006FF47873B3EB62520ED44FEAC12343F002
:100C2000004343EA505323FA02F070474FF00000AC
:100C3000704750EA013002D14FF0FF3070474FF05B
:100C4000000070474FEA4102B2F1E04324BFB3F520
:100C5000001CDCF1FE5C0DD901F0004C4FEAC00233
:100C60004CEA5070B2F1004F40EB830008BF20F017
:100C70000100704711F0804F21D113F13872BCBFD1
:100C800001F00040704741F480114FEA5252C2F126
:100C90001802C2F1200C10FA0CF320FA02F018BF6F
:100CA00040F001004FEAC1234FEAD32303FA0CFCC2
:100CB00040EA0C0023FA02F34FEA4303CCE77FEA51
:100CC000625307D150EA01331EBF4FF0FE4040F49B
:100CD0004000704701F0004040F0FE4040F400004A
:100CE000704700BF80F0004002E000BF81F000418B
:100CF00042001FBF5FEA410392EA030F7FEA226CC2
:100D00007FEA236C6AD04FEA1262D2EB1363C1BF51
:100D1000D218414048404140B8BF5B42192B88BFC0
:100D2000704710F0004F40F4000020F07F4018BFE3
:100D3000404211F0004F41F4000121F07F4118BF03
:100D4000494292EA030F3FD0A2F1010241FA03FCAB
:100D500010EB0C00C3F1200301FA03F100F0004393
:100D600002D5494260EB4000B0F5000F13D3B0F15B
:100D7000807F06D340084FEA310102F10102FE2ACA
:100D800051D2B1F1004F40EBC25008BF20F001003A
:100D900040EA03007047490040EB0000013A28BFD9
:100DA000B0F5000FEDD2B0FA80FCACF1080CB2EB5C
:100DB0000C0200FA0CF0AABF00EBC25052421843DA
:100DC000BCBFD0401843704792F0000F81F400017F
:100DD00006BF80F400000132013BB5E74FEA410352
:100DE0007FEA226C18BF7FEA236C21D092EA030FBE
:100DF00004D092F0000F08BF0846704790EA010F38
:100E00001CBF0020704712F07F4F04D1400028BF64
:100E100040F00040704712F100723CBF00F5000046
:100E2000704700F0004343F0FE4040F4000070477C
:100E30007FEA226216BF08467FEA23630146420228
:100E400006BF5FEA412390EA010F40F4800070473B
:100E50004FF0000304E000BF10F0004348BF4042E1
:100E60005FEA000C08BF704743F0964301464FF01D
:100E700000001CE050EA010208BF70474FF0000379
:100E80000AE000BF50EA010208BF704711F00043BA
:100E900002D5404261EB41015FEA010C02BF84468A
:100EA0000146002043F0B64308BFA3F18053A3F5E9
:100EB0000003BCFA8CF2083AA3EBC25310DB01FA30
:100EC00002FC634400FA02FCC2F12002BCF1004FB4
:100ED00020FA02F243EB020008BF20F00100704745
:100EE00002F1200201FA02FCC2F1200250EA4C0099
:100EF00021FA02F243EB020008BF20EADC707047DF
:100F00004FF0FF3C06E000BF4FF0010C02E000BFD5
:100F10004FF0010C4DF804CD4FEA40024FEA410377
:100F20007FEA226C18BF7FEA236C11D001B052EA2D
:100F3000530C18BF90EA010F58BFB2EB030088BFF3
:100F4000C81738BF6FEAE17018BF40F00100704762
:100F50007FEA226C02D15FEA402C05D17FEA236C44
:100F6000E4D15FEA412CE1D05DF8040B704700BF8B
:100F7000844608466146FFE70FB5FFF7C9FF002822
:100F800048BF10F1000F0FBD4DF808EDFFF7F4FF5B
:100F90000CBF012000205DF808FB00BF4DF808EDF4
:100FA000FFF7EAFF34BF012000205DF808FB00BF17
:100FB0004DF808EDFFF7E0FF94BF012000205DF839
:100FC00008FB00BF4DF808EDFFF7D2FF94BF0120EA
:100FD00000205DF808FB00BF4DF808EDFFF7C8FFE3
:100FE00034BF012000205DF808FB00BF38B505467E
:100FF0000C460022002328462146FFF79DFD28B914
:1010000028462146BDE8384000F00AB8284604F1D9
:10101000004100F005F8404261EB410138BD00BFDE
:10102000D0B500220B4B06460F46FFF713FBFFF728
:10103000E9FD0446FFF794FA0022074BFFF70AFB8D
:1010400002460B4630463946FFF74CF9FFF7DAFD0A
:101050002146D0BD0000F03D0000F04180B483B0D7
:1010600000AF0023FB712BE0FB791A4A1B011344EC
:101070000C3300221A60FB79164A1B011344043317
:1010800000221A60FB79134A1B0113440833002223
:101090001A60FB790F4A1B011344013300221A70B6
:1010A000FB790C4A1B011344023301221A70FB79AD
:1010B000084A1B01134400221A70FB790133FB71AB
:1010C000FB79032BD0D900BF00BF0C37BD4680BCD5
:1010D000704700BFF401002080B582B000AF786097
:1010E000786802F049FF00BF0837BD4680BD0000A8
:1010F00080B582B000AF0023FB713FE0FB79234A4B
:101100001B01134402331B78002B25D0FB791F4AA7
:101110001B01134401331B78002B1DD0FB791B4AA4
:101120001B0113440C331B68002B06D0FB79174AB4
:101130001B0113440C331B689847FB79134A1B01AE
:10114000134401331A78FB79013AD1B20F4A1B01DB
:10115000134401330A461A70FB790C4A1B011344ED
:1011600008331B68002B06D1FB79084A1B01134486
:101170000C3300221A60FB790133FB71FB79032BDE
:10118000BCD900BF00BF0837BD4680BDF4010020B8
:1011900080B485B000AFF860B9607A60FB70224B14
:1011A0001B78032B34D8204B1B78204A1B01134497
:1011B0000C33FA681A601C4B1B781C4A1B01134441
:1011C0000433BA681A60184B1B78184A1B01134481
:1011D00008337A681A60144B1B78144A1B011344B5
:1011E000013300221A70104B1B78104A1B01134464
:1011F0000233FA781A700C4B1B780C4A1B0113440B
:101200003A7E1A70084B1B780133DAB2064B1A701B
:10121000054B1B78013B1B01044A13441846143745
:10122000BD4680BC704700BF34020020F40100209E
:1012300080B582B000AF7860786802F053FE00BFDE
:101240000837BD4680BD80B483B000AF78600B46E0
:101250007B807B681B6800225A6200BF7B681B682A
:101260005A6A7B889A42F9D300BF00BF0C37BD464B
:1012700080BC704780B586B000AF786007F1080386
:1012800000221A605A609A60DA607B689B88BB60B3
:101290000023FB6001233B617B681B6807F10802A8
:1012A0001146184601F06EFB00BF1837BD4680BDE1
:1012B00080B586B000AF786007F1080300221A609D
:1012C0005A609A60DA607B689B88BB600123FB6090
:1012D00002237B617B681B6807F1080211461846F0
:1012E00001F050FB00BF1837BD4680BD80B582B00D
:1012F00000AF78600B46FB707B6818687B689B8842
:10130000FA78194601F0D9FC00BF0837BD4680BD08
:1013100080B584B000AF78607B681A687B689B8872
:101320001946104601F0B2FC0346FB73FB7B1846DE
:101330001037BD4680BD80B582B000AF78607B6855
:101340009B681846FFF774FF00BF0837BD4680BD95
:1013500080B582B000AF78600B467B807B689B686D
:101360007A8811461846FFF76EFF00BF0837BD4662
:1013700080BD80B584B000AF78600123FB737868CE
:10138000FFF796FF00217868FFF7B0FF44F2506145
:101390007868FFF7DDFF7868FFF76CFF3221786827
:1013A000FFF7D6FF7868FFF7B3FF0346002B12D193
:1013B00050217868FFF7CCFF7868FFF7A9FF034654
:1013C000012B08D10023FB7300BF7868FFF7A0FF53
:1013D0000346012BF9D0FB7B18461037BD4680BD74
:1013E00080B584B000AF78600023FB737868FFF7A6
:1013F00041FF0023BB7335E000BF7868FFF788FF2B
:101400000346002BF9D028217868FFF7A1FF786800
:10141000FFF77EFF0346012B0CD1BB7BC3F1070313
:10142000012202FA03F35AB297F90F3013435BB269
:10143000FB730DE0BB7BC3F10703012202FA03F348
:101440005BB2DB435AB297F90F3013405BB2FB73C8
:1014500000BF7868FFF75CFF0346012BF9D0BB7B28
:101460000133BB73BB7B072BC6D9FB7B18461037F8
:10147000BD4680BD80B584B000AFF860B9603B6008
:101480001346FB80FB68BA681A60FB68FA889A808A
:10149000FB683A689A60FB68054ADA60FB68044AB0
:1014A0001A61F868FFF747FF00BF1037BD4680BDDF
:1014B000000080BF90B585B000AF78600023FB735B
:1014C0007868FFF756FF0346FB73FB7B002B5FD169
:1014D0007868FFF785FF0346BB737868FFF780FFE6
:1014E00003467B737868FFF77BFF03463B7378689E
:1014F000FFF776FF0346FB727868FFF771FF03463C
:10150000BB72BA7AB97B7B7B19443B7B1944FB7A6B
:101510000B449A423AD1BB7B1846FFF79DFC044628
:101520007B7B1846FFF72CF84FF000021B4BFFF7B0
:10153000BBF902460B4610461946FFF783FB0346EC
:1015400019462046FFF7D4FB03461A467B681A610A
:101550003B7B1846FFF780FC0446FB7A1846FFF7F2
:101560000FF84FF000020D4BFFF79EF902460B46B5
:1015700010461946FFF766FB034619462046FFF75B
:10158000B7FB03461A467B68DA6001E00223FB736F
:10159000FB7B18461437BD4690BD00BF00002440B9
:1015A00080B582B000AF0346FB80FB881946034834
:1015B000FFF749FE00BF0837BD4680BDD4020020BA
:1015C00080B584B000AFF860B9603B601346FB8023
:1015D000FB68BA681A60FB68FA889A80FB683A6808
:1015E0009A60FB683A8B9A81FB689868FB689B89D4
:1015F0000022194601F061FBF86800F011F803467B
:101600004FF000011846FFF7DDFC0346002B01D028
:10161000012300E0002318461037BD4680BD0000BE
:1016200080B584B000AF78607B6898687B689B89E0
:101630000022194601F041FB0220FFF7B1FF7B6851
:1016400098687B689B890122194601F036FB0A20C5
:10165000FFF7A6FF7B6898687B689B890022194684
:1016600001F02BFB1D4BBB6006E0BB685A1EBA6045
:10167000002B01D11A4B2CE07B681A687B689B8891
:101680001946104601F002FB0346002BEDD0002363
:10169000FB6005E0FB680133FB600120FFF780FF82
:1016A0007B681A687B689B881946104601F0EEFA41
:1016B0000346002BEED1F868FFF7CAFB0346094941
:1016C0001846FEF757FD03461A467B681A617B6889
:1016D0001B6918461037BD4680BD00BF40420F0051
:1016E000000080BF7AC18C3C80B586B002AF7860C4
:1016F0000B46FB701346BB70FB7823F00F03FB73A4
:10170000FB781B01BB737B68DB7A002B07D0FB7B6C
:1017100043F00803FB73BB7B43F00803BB73BB7848
:10172000012B08D1FB7B43F00103FB73BB7B43F030
:101730000103BB730AE0BB78002B07D1FB7B23F0CE
:101740000103FB73BB7B23F00103BB73FB7B43F003
:101750000403DBB23B72012001F00CF8FB7B7B72CF
:10176000BB7B43F00403DBB2BB72012001F002F843
:10177000BB7BFB727B6818687B681B7999B207F1A9
:1017800008024FF47A730093042301F0F3FB00BFC7
:101790001037BD4680BD80B584B000AFF860B96039
:1017A00011461A460B46FB711346BB71FB68BA68BB
:1017B0001A60FB68FA791A71FB68BA795A71FB688A
:1017C0003A7E9A71FB6828229A72FB680622DA71C7
:1017D000FB680C221A72FB6814225A72FB680822FA
:1017E000DA72322000F0C6FF00223321F868FFF7DA
:1017F0007BFF00223321F868FFF776FF052000F019
:10180000B9FF00223221F868FFF76EFF052000F0D3
:10181000B1FF00222021F868FFF766FF052000F0E5
:10182000A9FFFB68DB7900221946F868FFF75CFF27
:10183000FB681B7A00221946F868FFF755FFFB6822
:101840005B7A00221946F868FFF74EFFFB689B7A27
:1018500000221946F868FFF747FF00220121F868C7
:10186000FFF742FF00220221F868FFF73DFF00BFAB
:101870001037BD4680BD80B582B000AF78600B46A2
:10188000FB70FB78012219467868FFF72DFF00BF37
:101890000837BD4680BD80B582B000AF7860396042
:1018A00007E03B685A1C3A601B7819467868FFF7D6
:1018B000E2FF3B681B78002BF3D100BF00BF083765
:1018C000BD4680BD80B582B000AF786000220121A6
:1018D0007868FFF709FF052000F04CFF00BF0837CC
:1018E000BD4680BD80B584B000AF78600B46FB700C
:1018F0001346BB700023FB737B685B79FA789A42CE
:1019000003D37B685B79013BFB707B689B79BA787A
:101910009A4203D37B689B79013BBB70BB78032B56
:1019200019D801A252F823F0391900083F1900080C
:10193000471900084F190008FB78FB730BE0FB7890
:101940004033FB7307E0FB781433FB7303E0FB7851
:101950005433FB7300BFFB7B63F07F03DBB20022D9
:1019600019467868FFF7C0FE00BF1037BD4680BD3E
:1019700080B483B000AF0346FB7197F90730002BAA
:101980000BDBFB7903F01F02064997F907305B096F
:10199000012000FA02F241F8232000BF0C37BD46B7
:1019A00080BC704700E100E080B483B000AF034624
:1019B000FB7197F90730002B12DBFB7903F01F0254
:1019C0000A4997F907305B09012000FA02F2203337
:1019D00041F82320BFF34F8F00BFBFF36F8F00BFCD
:1019E00000BF0C37BD4680BC704700BF00E100E07F
:1019F00080B582B000AF7860391D4FF0FF3301220F
:101A0000034802F079FD7B6818460837BD4680BD63
:101A10001C03002080B584B000AF514B1B78DBB2B3
:101A2000002B00F095804F494F4804F05BF8F860B8
:101A30004C49002004F056F8B8604C4B1B6819461E
:101A40004B4803F0E1FE2620FFF7AEFFBB68002BFA
:101A50003BD148494448FEF77BFB0346002B06D1A7
:101A6000454B01221A70454803F034FF67E04449B2
:101A70003D48FEF76DFB0346002B06D13E4B02228C
:101A80001A70404803F026FF59E03F493648FEF7F8
:101A90005FFB0346002B06D1374B00221A703B48F0
:101AA00003F018FF4BE03A492F48FEF751FB03467D
:101AB000002B06D1304B03221A70364803F00AFF80
:101AC0003DE0354803F006FF39E0B86802F0F2FE69
:101AD00003467B603149F868FEF73AFB0346002B6A
:101AE0000CD12F4B1B687A682E49A1FB02125209B8
:101AF0009A6079682C4803F087FE16E02B49F86855
:101B0000FEF726FB0346002B0CD1294B1B687A6895
:101B10002449A1FB021252099A607968254803F012
:101B200073FE02E01C4803F0D5FE1D4B1B6899684C
:101B30001F4B1B689A68204B1B680A449A6026203A
:101B4000FFF716FF094B1B6819461C4803F05CFEA3
:101B5000034B00221A7000BF1037BD4680BD00BF86
:101B6000F5030020C0910008E0030020FC030020E2
:101B7000C4910008DC91000800000020E4910008F6
:101B8000049200080C9200082C920008349200087D
:101B9000589200086092000880920008989200080D
:101BA00098030020B5814E1BA4920008C89200083B
:101BB0009C030020D4920008A0030020F8920008A3
:101BC00080B500AF0E4B1B6819460E4803F01CFE93
:101BD0000D48FFF76FFC03461A460C4B1A700A4B70
:101BE000DB680B4A1360084B1B690A4A1360044BFD
:101BF0001B681946084803F007FE00BF80BD00BF00
:101C0000FC0300201093000864030020B4030020AC
:101C1000A8030020AC0300202493000880B500AF87
:101C20000A4B1B6819460A4803F0EEFD0948FFF706
:101C3000F7FC084B1B69084A1360044B1B681946E4
:101C4000064803F0E1FD00BF80BD00BFFC0300209B
:101C50003893000884030020B00300204C93000850
:101C6000B0B582B002AF684B1B681946674803F0F5
:101C7000CBFD6748FFF726FE664B1B78032B00F26F
:101C8000BA8001A252F823F0151D0008991C000823
:101C9000D71C0008531D00085F4B1B681846FEF751
:101CA00081FC02460B465D495D4803F01BFE0022A5
:101CB00000215748FFF716FE59495548FFF7EBFD3D
:101CC000554B1B681846FEF76DFC02460B465548FF
:101CD00003F09AFD8FE0544B1B681846FEF762FC38
:101CE00002460B4651494E4803F0FCFD00220021FC
:101CF0004748FFF7F7FD4A494548FFF7CCFD4A4BF7
:101D00001B681846FEF74EFC02460B46484803F097
:101D10007BFD70E0474B1B681846FEF743FC02460C
:101D20000B4645493E4803F0DDFD002200213848BE
:101D3000FFF7D8FD3A493648FFF7ADFD3D4B1B682C
:101D40001846FEF72FFC02460B463C4803F05CFDAC
:101D500051E0314B1B681846FEF724FC04460D4643
:101D6000344B1B681846FEF71DFC02460B46CDE9B6
:101D7000002322462B463249294803F0B3FD0022B6
:101D800000212348FFF7AEFD25492148FFF783FDD9
:101D9000254B1B681846FEF705FC02460B462349F7
:101DA000284803F09FFD012200211948FFF79AFD02
:101DB00024491748FFF76FFD1E4B1B681846FEF7B6
:101DC000F1FB02460B461D4803F01EFD164B1B6837
:101DD0001846FEF7E7FB02460B461B4803F014FDCE
:101DE0000D4B1B681846FEF7DDFB02460B461748F5
:101DF00003F00AFD00BF044B1B681946144803F0AA
:101E000003FD00BFBD46B0BDFC0300206493000885
:101E10007803002000000020A80300207893000829
:101E2000B803002080930008AC0300208C930008C6
:101E300094930008B0030020A4930008AC9300081A
:101E4000C0930008CC030020D0930008E49300085E
:101E5000F893000880B582B002AF00F029FC00F0D2
:101E600089F800F0C5F900F0CBF800F0F7F800F0C1
:101E700047F900F093F90423009314234E222A49D2
:101E80002A48FFF788FC2A4B4FF4007229492A4858
:101E9000FFF7F0FA40230093264B202225492748DC
:101EA000FFF78EFB264B1B781A46264B1344012264
:101EB0001946254802F0A3FB244803F00BFDFFF769
:101EC000CDF8012300930123032200212048FFF7CE
:101ED0005FF903461F4A1360012300930123032285
:101EE00000211D48FFF754F903461C4A13600123E3
:101EF00000930123032200211948FFF749F9034603
:101F0000184A13600123009301230322002116487D
:101F1000FFF73EF90346154A13601548FFF7DCF852
:101F2000FFF7E6F8FCE700BF380200207803002046
:101F3000D402002000080140640300208403002034
:101F4000F4030020E00300201C0300200C94000890
:101F5000C11B0008980300201D1C00089C030020E2
:101F6000611C0008A0030020151A0008A40300202B
:101F70008C02002080B590B000AF07F11803282232
:101F80000021184603F0A6FD3B1D00221A605A608E
:101F90009A60DA601A610123BB614FF48033FB6100
:101FA00000233B620123BB6202237B634FF4803337
:101FB000BB634FF4E013FB6307F11803184601F00D
:101FC00031FB0346002B01D000F06AF90F237B6040
:101FD0000223BB600023FB604FF480633B6100235E
:101FE0007B613B1D0221184601F09EFD0346002B3C
:101FF00001D000F055F900BF4037BD4680BD00005C
:1020000080B500AF124B134A1A60114B124A5A6046
:102010000F4B00229A600E4B0022DA600C4B4FF4FB
:1020200080421A610A4B00225A61094B00229A61D0
:10203000074B0022DA61064B00221A62044800F0C6
:1020400055FE0346002B01D000F02AF900BF80BDE9
:102050003802002000580040A086010080B586B0FC
:1020600000AF07F1080300221A605A609A60DA6034
:102070003B4600221A605A601F4B204A1A601E4BD2
:1020800040F27D325A601C4B00229A601A4B44F693
:102090001F62DA60184B00221A61174B00225A6146
:1020A000154B00229A61144801F0CCFE0346002B28
:1020B00001D000F0F5F84FF48053BB6007F108033E
:1020C00019460D4801F0AAFF0346002B01D000F08D
:1020D000E7F800233B6000237B603B461946064837
:1020E00002F05CF90346002B01D000F0D9F800BFE4
:1020F0001837BD4680BD00BF8C020020002C014077
:1021000080B586B000AF07F1080300221A605A605C
:102110009A60DA603B4600221A605A601D4B1E4AE4
:102120001A601C4B53225A601A4B00229A60194BBA
:102130004FF6FF72DA60174B00221A61154B00222E
:102140009A61144801F07EFE0346002B01D000F096
:10215000A7F84FF48053BB6007F1080319460D48F8
:1021600001F05CFF0346002B01D000F099F800233A
:102170003B6000237B603B461946064802F00EF99F
:102180000346002B01D000F08BF800BF1837BD4686
:1021900080BD00BFD40200200008004080B500AF21
:1021A000114B124A1A60104B4FF4E1325A600E4B39
:1021B00000229A600C4B0022DA600B4B00221A615D
:1021C000094B0C225A61084B00229A61064B0022EF
:1021D000DA61054802F040F90346002B01D000F017
:1021E0005FF800BF80BD00BF1C030020004400401A
:1021F00080B588B000AF07F1100300221A605A6062
:102200009A60DA60244B9B69234A43F02003936170
:10221000214B9B6903F02003FB60FB681E4B9B690D
:102220001D4A43F0040393611B4B9B6903F00403B5
:10223000BB60BB68184B9B69174A43F00803936166
:10224000154B9B6903F008037B607B6800224FF409
:102250001071124800F031FD20233B6100237B61A7
:102260000023BB6107F1100319460C4800F08AFBFC
:102270004FF410733B6101237B610023BB61022398
:10228000FB6107F110031946044800F07BFB00BF17
:102290002037BD4680BD00BF00100240000801404D
:1022A00080B400AF72B600BFFEE7000080B485B016
:1022B00000AF154B9B69144A43F001039361124B25
:1022C0009B6903F00103BB60BB680F4BDB690E4ADF
:1022D00043F08053D3610C4BDB6903F080537B6088
:1022E0007B680A4B5B68FB60FB6823F0E063FB6084
:1022F000FB6843F00073FB60044AFB68536000BF57
:102300001437BD4680BC70470010024000000140F9
:1023100080B588B000AF786007F1100300221A6022
:102320005A609A60DA607B681B68164A934224D12F
:10233000154B9B69144A43F008039361124B9B6948
:1023400003F00803FB60FB684FF440633B6112231A
:102350007B610323FB6107F1100319460B4800F072
:1023600011FB094BDB69084A43F48003D361064B38
:10237000DB6903F48003BB60BB6800BF2037BD4648
:1023800080BD00BF0058004000100240000C01401A
:1023900080B485B000AF78607B681B68124A9342B6
:1023A0000CD1124B9B69114A43F4006393610F4BAC
:1023B0009B6903F40063FB60FB6810E07B681B68AB
:1023C0000B4A93420BD1094BDB69084A43F00403E3
:1023D000D361064BDB6903F00403BB60BB6800BF3D
:1023E0001437BD4680BC7047002C014000100240ED
:1023F0000008004080B588B000AF786007F1100396
:1024000000221A605A609A60DA607B681B681B4A77
:1024100093422FD11A4BDB69194A43F40033D3613D
:10242000174BDB6903F40033FB60FB68144B9B69BB
:10243000134A43F004039361114B9B6903F00403B7
:10244000BB60BB6804233B6102237B610323FB6108
:1024500007F1100319460B4800F094FA08233B617A
:1024600000237B610023BB6107F110031946054877
:1024700000F088FA00BF2037BD4680BD0044004010
:10248000001002400008014080B400AFFEE780B4B5
:1024900000AFFEE780B400AFFEE780B400AFFEE718
:1024A00080B400AFFEE780B400AF00BFBD4680BC83
:1024B000704780B400AF00BFBD4680BC704780B499
:1024C00000AF00BFBD4680BC704780B500AF00F0D4
:1024D00035F900BF80BD80B400AF01231846BD466A
:1024E00080BC704780B582B000AF7860396003F07F
:1024F0009FFB034616221A604FF0FF331846083739
:10250000BD4680BD80B582B000AF78604FF0FF312E
:102510007868FFF7E7FFFEE780B586B000AFF860A8
:10252000B9607A6000237B610AE0AFF30080014666
:10253000BB685A1CBA60CAB21A707B6901337B61EE
:102540007A697B689A42F0DB7B6818461837BD468B
:1025500080BD80B586B000AFF860B9607A600023B6
:102560007B6109E0BB685A1CBA601B781846FFF70C
:102570003FFA7B6901337B617A697B689A42F1DBC0
:102580007B6818461837BD4680BD80B483B000AF65
:1025900078604FF0FF3318460C37BD4680BC70475B
:1025A00080B483B000AF786039603B684FF400526C
:1025B0005A60002318460C37BD4680BC704780B473
:1025C00083B000AF7860012318460C37BD4680BC4D
:1025D000704780B485B000AFF860B9607A600023BE
:1025E00018461437BD4680BC7047000080B586B0E1
:1025F00000AF7860144A154BD31A7B617B693B614D
:10260000134B1B68002B02D1114B124A1A60104B5E
:102610001A687B6813443A699A4207D203F008FBB0
:1026200003460C221A604FF0FF3309E0084B1B6889
:10263000FB60074B1A687B681344054A1360FB680C
:1026400018461837BD4680BD005000200004000029
:10265000F80300205005002080B400AF00BFBD4645
:1026600080BC7047FFF7F8FF0B480C490C4A002369
:1026700002E0D458C4500433C4188C42F9D3094A38
:10268000094C002301E013600432A242FBD303F0A3
:10269000D5FAFFF7DFFB704700000020D8010020CB
:1026A000CC980008D80100204C050020FEE700006F
:1026B00080B500AF084B1B68074A43F01003136056
:1026C000032000F02BF90F2000F008F8FFF7EEFDD3
:1026D0000023184680BD00BF0020024080B582B0B4
:1026E00000AF7860124B1A68124B1B7819464FF4F2
:1026F0007A73B3FBF1F3B2FBF3F3184600F035F94C
:102700000346002B01D001230EE07B680F2B0AD873
:10271000002279684FF0FF3000F00BF9064A7B6821
:102720001360002300E0012318460837BD4680BD32
:10273000040000200C0000200800002080B400AF3E
:10274000054B1B781A46054B1B681344034A13605C
:1027500000BFBD4680BC70470C000020FC03002079
:1027600080B400AF024B1B681846BD4680BC704762
:10277000FC03002080B584B000AF7860FFF7F0FF65
:10278000B8607B68FB60FB68B3F1FF3F05D00A4B84
:102790001B781A46FB681344FB6000BFFFF7E0FF9D
:1027A0000246BB68D31AFA689A42F7D800BF00BF46
:1027B0001037BD4680BD00BF0C00002080B485B03E
:1027C00000AF78607B6803F00703FB600C4BDB68AD
:1027D000BB60BA684FF6FF031340BB60FB681A0288
:1027E000BB68134343F0BF6343F40033BB60044A48
:1027F000BB68D36000BF1437BD4680BC704700BFC4
:1028000000ED00E080B400AF044BDB681B0A03F06E
:1028100007031846BD4680BC704700BF00ED00E0CE
:1028200080B483B000AF03463960FB7197F907307D
:10283000002B0ADB3B68DAB20C4997F9073012012A
:10284000D2B20B4483F800230AE03B68DAB20849AD
:10285000FB7903F00F03043B1201D2B20B441A764A
:1028600000BF0C37BD4680BC704700BF00E100E0F0
:1028700000ED00E080B489B000AFF860B9607A6024
:10288000FB6803F00703FB61FB69C3F10703042B3B
:1028900028BF0423BB61FB690433062B02D9FB6903
:1028A000033B00E000237B614FF0FF32BB6902FA7B
:1028B00003F3DA43BB681A407B699A404FF0FF315B
:1028C0007B6901FA03F3D9437B680B401343184635
:1028D0002437BD4680BC704780B582B000AF7860B9
:1028E0007B68013BB3F1807F01D301230FE00A4AEB
:1028F0007B68013B53600F214FF0FF30FFF790FFE3
:10290000054B00229A60044B07221A6000231846E8
:102910000837BD4680BD00BF10E000E080B582B042
:1029200000AF78607868FFF749FF00BF0837BD4601
:1029300080BD80B586B000AF0346B9607A60FB7396
:1029400000237B61FFF75EFF78617A68B968786978
:10295000FFF790FF024697F90F3011461846FFF730
:102960005FFF00BF1837BD4680BD80B582B000AFA5
:1029700078607868FFF7B0FF034618460837BD4611
:1029800080BD000080B48BB000AF78603960002358
:102990007B6200233B6269E101227B6A02FA03F356
:1029A000FB613B681B68FA691340BB61BA69FB694C
:1029B0009A4240F058813B685B689A4A93425ED0E5
:1029C000984A934275D8984A934258D0964A93426F
:1029D0006FD8964A934252D0944A934269D8944A07
:1029E00093424CD0924A934263D8924A934246D043
:1029F000904A93425DD8122B2AD8122B59D801A2A3
:102A000052F823F07F2A0008592A00086B2A000890
:102A1000AD2A0008B32A0008B32A0008B32A000828
:102A2000B32A0008B32A0008B32A0008B32A000812
:102A3000B32A0008B32A0008B32A0008B32A000802
:102A4000B32A0008B32A0008612A0008752A000882
:102A5000794A934213D02CE03B68DB683B6229E063
:102A60003B68DB6804333B6224E03B68DB68083387
:102A70003B621FE03B68DB680C333B621AE03B685B
:102A80009B68002B02D104233B6213E03B689B68E8
:102A9000012B05D108233B627B68FA691A6109E0C2
:102AA00008233B627B68FA695A6103E000233B62BA
:102AB00000E000BFBB69FF2B01D87B6801E07B68A9
:102AC00004337B61BB69FF2B02D87B6A9B0002E069
:102AD0007B6A083B9B003B617B691A680F213B695D
:102AE00001FA03F3DB431A40396A3B6901FA03F345
:102AF0001A437B691A603B685B6803F08053002BC4
:102B000000F0B1804D4B9B694C4A43F00103936147
:102B10004A4B9B6903F00103BB60BB68484A7B6A70
:102B20009B08023352F82330FB607B6A03F00303F7
:102B30009B000F2202FA03F3DB43FA681340FB60A9
:102B40007B68404A934213D07B683F4A93420DD042
:102B50007B683E4A934207D07B683D4A934201D14D
:102B6000032306E0042304E0022302E0012300E043
:102B700000237A6A02F0030292009340FA6813433A
:102B8000FB602F497B6A9B080233FA6841F82320D7
:102B90003B685B6803F48013002B06D02D4B9A68CA
:102BA0002C49BB6913438B6006E02A4B9A68BB69CA
:102BB000DB43284913408B603B685B6803F40013D8
:102BC000002B06D0234BDA682249BB691343CB6044
:102BD00006E0204BDA68BB69DB431E491340CB603B
:102BE0003B685B6803F40033002B06D0194B5A682E
:102BF0001849BB6913434B6006E0164B5A68BB6922
:102C0000DB43144913404B603B685B6803F480333B
:102C1000002B21D00F4B1A680E49BB6913430B6080
:102C200021E000BF0000321000003110000022102F
:102C300000002110000012100000111000100240CE
:102C40000000014000080140000C0140001001405C
:102C500000140140000401400B4B1A68BB69DB43C0
:102C6000094913400B607B6A01337B623B681A6839
:102C70007B6A22FA03F3002B7FF48EAE00BF00BF05
:102C80002C37BD4680BC70470004014080B485B03D
:102C900000AF78600B467B807B689A687B88134026
:102CA000002B02D00123FB7301E00023FB73FB7BAD
:102CB00018461437BD4680BC704780B483B000AF5F
:102CC00078600B467B8013467B707B78002B03D0AB
:102CD0007A887B681A6103E07B881A047B681A6132
:102CE00000BF0C37BD4680BC7047000080B584B083
:102CF00000AF78607B68002B01D101232BE17B685A
:102D000093F83D30DBB2002B06D17B68002283F8BC
:102D10003C207868FFF7FCFA7B68242283F83D208A
:102D20007B681B681A687B681B6822F001021A60C6
:102D30007B681B681A687B681B6842F400421A6053
:102D40007B681B681A687B681B6822F400421A6063
:102D500001F032F8F8607B685B68814A934207D8DB
:102D6000FB68804A934294BF01230023DBB206E054
:102D7000FB687D4A934294BF01230023DBB2002B02
:102D800001D00123E7E0FB68784AA2FB03239B0CF8
:102D9000BB607B681B685B6823F03F017B681B6836
:102DA000BA680A435A607B681B681B6A23F03F01BC
:102DB0007B685B686A4A934202D8BB68013309E0CA
:102DC000BB684FF4967202FB03F3694AA2FB03232C
:102DD0009B0901337A6812680B4313627B681B6896
:102DE000DB6923F44F4222F0FF027B685B685C4999
:102DF0008B4219D8FB68591E7B685B685B00B1FB8E
:102E0000F3F3591C40F6FC730B40002B0AD0FB680F
:102E1000591E7B685B685B00B1FBF3F30133C3F3BE
:102E20000B0351E004234FE07B689B68002B11D11A
:102E3000FB68581E7B6859680B465B000B44B0FB6F
:102E4000F3F30133C3F30B03002B0CBF0123002367
:102E5000DBB212E0FB68581E7B6859680B469B008A
:102E60000B4499000B44B0FBF3F30133C3F30B03A2
:102E7000002B0CBF01230023DBB2002B01D0012368
:102E800022E07B689B68002B0ED1FB68581E7B6894
:102E900059680B465B000B44B0FBF3F30133C3F3FB
:102EA0000B0343F400430FE0FB68581E7B6859682E
:102EB0000B469B000B4499000B44B0FBF3F301332A
:102EC000C3F30B0343F44043796809681343CB61B0
:102ED0007B681B681B6823F0C0017B68DA697B682C
:102EE0001B6A1A437B681B680A431A607B681B686D
:102EF0009B6823F4034323F0FF037A6811697A681F
:102F0000D26811437A6812680B4393607B681B6830
:102F1000DB6823F0FF017B685A697B689B691A4371
:102F20007B681B680A43DA607B681B681A687B68E9
:102F30001B6842F001021A607B6800221A647B68F9
:102F4000202283F83D207B6800221A637B680022E0
:102F500083F83E20002318461037BD4680BD00BFD1
:102F6000A08601007F841E00FF083D0083DE1B4316
:102F7000D34D621080B588B002AFF8607A601A460F
:102F80000B467B8113463B81FFF7EAFB7861FB68C8
:102F900093F83D30DBB2202B40F0E0807B6900935A
:102FA000192301227049F86800F064F90346002BE8
:102FB00001D00223D3E0FB6893F83C30012B01D110
:102FC0000223CCE0FB68012283F83C20FB681B68ED
:102FD0001B6803F00103012B07D0FB681B681A680C
:102FE000FB681B6842F001021A60FB681B681A68E4
:102FF000FB681B6822F400621A60FB68212283F8D8
:103000003D20FB68102283F83E20FB6800221A64F2
:10301000FB687A685A62FB683A895A85FB685B8D5F
:103020009AB2FB681A85FB68504ADA6279897B6933
:103030003A6AF86800F09CF80346002B01D001239F
:103040008DE000233B61FB681B685B693B61FB68AB
:103050001B689B693B613B6966E07A69396AF8687D
:1030600000F022FA0346002B0DD0FB681B6C042BEA
:1030700007D1FB681B681A68FB681B6842F4007282
:103080001A6001236BE0FB685B6A1A78FB681B68B7
:103090001A61FB685B6A5A1CFB685A62FB685B8DAD
:1030A0009BB2013B9AB2FB685A85FB681B8D013BC2
:1030B0009AB2FB681A85FB681B685B6903F004031E
:1030C000042B1BD1FB681B8D002B17D0FB685B6AA0
:1030D0001A78FB681B681A61FB685B6A5A1CFB68FC
:1030E0005A62FB685B8D9BB2013B9AB2FB685A85C2
:1030F000FB681B8D013B9AB2FB681A857A69396AB5
:10310000F86800F019FA0346002B0DD0FB681B6C21
:10311000042B07D1FB681B681A68FB681B6842F424
:1031200000721A6001231AE0FB681B8D002B94D1FA
:10313000FB681B681A68FB681B6842F400721A601F
:10314000FB68202283F83D20FB68002283F83E20A4
:10315000FB68002283F83C20002300E0022318468D
:103160001837BD4680BD00BF020010000000FFFF01
:1031700080B588B002AFF8607A603B600B467B8117
:10318000FB68DB6A7B617B69082B06D07B69012BBE
:1031900003D07B6913F5803F08D1FB681B681A6870
:1031A000FB681B6842F480721A600BE0FB681B6BC3
:1031B000122B07D1FB681B681A68FB681B6842F476
:1031C00080721A603B6800937B6800224FF0011107
:1031D000F86800F04FF80346002B0DD0FB681B6821
:1031E0001B6803F48073B3F5807F03D1FB684FF451
:1031F00000721A64032335E0FB681B69B3F5804F46
:1032000008D17B89DBB21A46FB681B6802F0FE021C
:103210001A611BE07B89DB11DBB203F00603DBB232
:1032200063F00F03DAB2FB681B681A613B687A68C7
:103230000E49F86800F098F80346002B01D00123EE
:1032400010E07B89DAB2FB681B681A613B687A6818
:103250000749F86800F088F80346002B01D00123E5
:1032600000E0002318461837BD4680BD0800010065
:103270000200010080B584B000AFF860B9603B6027
:103280001346FB7148E03B68B3F1FF3F44D0FFF7C2
:1032900067FA0246BB69D31A3A689A4202D33B687E
:1032A000002B39D1BB681B0CDBB2012B0DD1FB68A5
:1032B0001B685B69DA43BB6813409BB2002B0CBFF1
:1032C00001230023DBB21A460CE0FB681B689B69F4
:1032D000DA43BB6813409BB2002B0CBF01230023D1
:1032E000DBB21A46FB799A4216D1FB6800221A63B8
:1032F000FB68202283F83D20FB68002283F83E20F3
:10330000FB681B6C43F02002FB681A64FB68002218
:1033100083F83C20012323E0BB681B0CDBB2012BAC
:103320000DD1FB681B685B69DA43BB6813409BB235
:10333000002B0CBF01230023DBB21A460CE0FB6814
:103340001B689B69DA43BB6813409BB2002B0CBF20
:1033500001230023DBB21A46FB799A4293D0002363
:1033600018461037BD4680BD80B584B000AFF86008
:10337000B9607A603B6071E0FB681B685B6903F4CD
:103380008063B3F5806F23D1FB681B681A68FB6804
:103390001B6842F400721A60FB681B686FF480625D
:1033A0005A61FB6800221A63FB68202283F83D20E3
:1033B000FB68002283F83E20FB681B6C43F004028C
:1033C000FB681A64FB68002283F83C20012367E055
:1033D0007B68B3F1FF3F41D0FFF7C2F902463B687B
:1033E000D31A7A689A4202D37B68002B36D1BB6825
:1033F0001B0CDBB2012B0CD1FB681B685B69DA4349
:10340000BB6813409BB2002B14BF01230023DBB227
:103410000BE0FB681B689B69DA43BB6813409BB2F7
:10342000002B14BF01230023DBB2002B16D0FB6856
:1034300000221A63FB68202283F83D20FB680022EB
:1034400083F83E20FB681B6C43F02002FB681A6483
:10345000FB68002283F83C20012321E0BB681B0CA1
:10346000DBB2012B0CD1FB681B685B69DA43BB68DC
:1034700013409BB2002B14BF01230023DBB20BE0EF
:10348000FB681B689B69DA43BB6813409BB2002B47
:1034900014BF01230023DBB2002B7FF46DAF0023A8
:1034A00018461037BD4680BD80B584B000AFF860C7
:1034B000B9607A6034E0F86800F086F80346002BC3
:1034C00001D0012334E0BB68B3F1FF3F28D0FFF700
:1034D00047F902467B68D31ABA689A4202D3BB689E
:1034E000002B1DD1FB681B685B6903F08003802BF8
:1034F00016D0FB6800221A63FB68202283F83D2067
:10350000FB68002283F83E20FB681B6C43F020021E
:10351000FB681A64FB68002283F83C20012307E063
:10352000FB681B685B6903F08003802BC3D1002319
:1035300018461037BD4680BD80B584B000AFF86036
:10354000B9607A6034E0F86800F03EF80346002B7A
:1035500001D0012334E0BB68B3F1FF3F28D0FFF76F
:10356000FFF802467B68D31ABA689A4202D3BB6856
:10357000002B1DD1FB681B685B6903F00403042B5F
:1035800016D0FB6800221A63FB68202283F83D20D6
:10359000FB68002283F83E20FB681B6C43F020028E
:1035A000FB681A64FB68002283F83C20012307E0D3
:1035B000FB681B685B6903F00403042BC3D1002381
:1035C00018461037BD4680BD80B483B000AF786028
:1035D0007B681B685B6903F48063B3F5806F1BD164
:1035E0007B681B686FF480625A617B6800221A63F3
:1035F0007B68202283F83D207B68002283F83E20F0
:103600007B681B6C43F004027B681A647B680022B1
:1036100083F83C20012300E0002318460C37BD4608
:1036200080BC704780B586B000AF78607B68002BA7
:1036300001D1012372E27B681B6803F00103002BB8
:1036400000F08780924B5B6803F00C03042B0CD0D6
:103650008F4B5B6803F00C03082B12D18C4B5B681B
:1036600003F48033B3F5803F0BD1894B1B6803F41F
:103670000033002B6CD07B685B68002B68D1012382
:103680004CE27B685B68B3F5803F06D1804B1B68DA
:103690007F4A43F4803313602EE07B685B68002B25
:1036A0000CD17B4B1B687A4A23F480331360784B30
:1036B0001B68774A23F4802313601DE07B685B68F6
:1036C000B3F5A02F0CD1724B1B68714A43F48023D1
:1036D00013606F4B1B686E4A43F4803313600BE03A
:1036E0006B4B1B686A4A23F480331360684B1B687A
:1036F000674A23F4802313607B685B68002B13D038
:10370000FFF72EF8386108E0FFF72AF802463B6918
:10371000D31A642B01D9032300E25D4B1B6803F429
:103720000033002BF0D014E0FFF71AF8386108E0FE
:10373000FFF716F802463B69D31A642B01D903231D
:10374000ECE1534B1B6803F40033002BF0D100E095
:1037500000BF7B681B6803F00203002B63D04C4B57
:103760005B6803F00C03002B0BD0494B5B6803F044
:103770000C03082B1CD1464B5B6803F48033002BF1
:1037800016D1434B1B6803F00203002B05D07B6866
:103790001B69012B01D00123C0E13D4B1B6823F0C5
:1037A000F8027B685B69DB00394913430B603AE040
:1037B0007B681B69002B20D0364B01221A60FEF774
:1037C000CFFF386108E0FEF7CBFF02463B69D31A12
:1037D000022B01D90323A1E12D4B1B6803F0020347
:1037E000002BF0D02A4B1B6823F0F8027B685B6942
:1037F000DB00274913430B6015E0264B00221A60BB
:10380000FEF7AEFF386108E0FEF7AAFF02463B690B
:10381000D31A022B01D9032380E11D4B1B6803F04F
:103820000203002BF0D17B681B6803F00803002B18
:103830003AD07B689B69002B19D0174B01221A6084
:10384000FEF78EFF386108E0FEF78AFF02463B690B
:10385000D31A022B01D9032360E10D4B5B6A03F0FD
:103860000203002BF0D0012000F0CEFA1CE00A4B3E
:1038700000221A60FEF774FF38610FE0FEF770FF58
:1038800002463B69D31A022B08D9032346E100BF45
:10389000001002400000424280044242924B5B6AA8
:1038A00003F00203002BE9D17B681B6803F00403DB
:1038B000002B00F0A6800023FB758B4BDB6903F027
:1038C0008053002B0DD1884BDB69874A43F080532E
:1038D000D361854BDB6903F08053BB60BB68012378
:1038E000FB75824B1B6803F48073002B18D17F4B50
:1038F0001B687E4A43F480731360FEF731FF386122
:1039000008E0FEF72DFF02463B69D31A642B01D96C
:10391000032303E1754B1B6803F48073002BF0D085
:103920007B68DB68012B06D16F4B1B6A6E4A43F044
:10393000010313622DE07B68DB68002B0CD16A4B1E
:103940001B6A694A23F001031362674B1B6A664ACC
:1039500023F0040313621CE07B68DB68052B0CD1A9
:10396000614B1B6A604A43F0040313625E4B1B6A9F
:103970005D4A43F0010313620BE05B4B1B6A5A4A3A
:1039800023F001031362584B1B6A574A23F00403C8
:1039900013627B68DB68002B15D0FEF7E1FE38610F
:1039A0000AE0FEF7DDFE02463B69D31A41F2883297
:1039B000934201D90323B1E04B4B1B6A03F002038E
:1039C000002BEED014E0FEF7CBFE38610AE0FEF7E4
:1039D000C7FE02463B69D31A41F28832934201D9AD
:1039E00003239BE0404B1B6A03F00203002BEED144
:1039F000FB7D012B05D13C4BDB693B4A23F0805317
:103A0000D3617B68DB69002B00F08780364B5B68F5
:103A100003F00C03082B61D07B68DB69022B46D1D5
:103A2000334B00221A60FEF79BFE386108E0FEF778
:103A300097FE02463B69D31A022B01D903236DE09E
:103A4000294B1B6803F00073002BF0D17B681B6AC5
:103A5000B3F5803F08D1244B5B6823F400327B68C8
:103A60009B68214913434B601F4B5B6823F474121E
:103A70007B68196A7B685B6A0B431B4913434B6085
:103A80001B4B01221A60FEF76BFE386108E0FEF75F
:103A900067FE02463B69D31A022B01D903233DE09E
:103AA000114B1B6803F00073002BF0D035E0104B76
:103AB00000221A60FEF754FE386108E0FEF750FE5F
:103AC00002463B69D31A022B01D9032326E0064B99
:103AD0001B6803F00073002BF0D11EE07B68DB69EC
:103AE000012B07D1012319E00010024000700040B3
:103AF000600042420B4B5B68FB60FB6803F4803262
:103B00007B681B6A9A4206D1FB6803F470127B68DB
:103B10005B6A9A4201D0012300E00023184618375F
:103B2000BD4680BD0010024080B584B000AF786013
:103B300039607B68002B01D10123D0E06A4B1B6800
:103B400003F007033A689A4210D9674B1B6823F0C9
:103B5000070265493B6813430B60634B1B6803F026
:103B600007033A689A4201D00123B8E07B681B68DA
:103B700003F00203002B20D07B681B6803F00403D2
:103B8000002B05D0594B5B68584A43F4E0635360FF
:103B90007B681B6803F00803002B05D0534B5B6860
:103BA000524A43F460535360504B5B6823F0F00279
:103BB0007B689B684D4913434B607B681B6803F02F
:103BC0000103002B40D07B685B68012B07D1474B7A
:103BD0001B6803F40033002B15D101237FE07B68C1
:103BE0005B68022B07D1414B1B6803F00073002B6D
:103BF00009D1012373E03D4B1B6803F00203002B46
:103C000001D101236BE0394B5B6823F003027B6831
:103C10005B68364913434B60FEF7A2FDF8600AE08B
:103C2000FEF79EFD0246FB68D31A41F288329342AA
:103C300001D9032353E02D4B5B6803F00C027B6832
:103C40005B689B009A42EBD1274B1B6803F007038C
:103C50003A689A4210D2244B1B6823F0070222498B
:103C60003B6813430B60204B1B6803F007033A6863
:103C70009A4201D0012332E07B681B6803F0040301
:103C8000002B08D0194B5B6823F4E0627B68DB688B
:103C9000164913434B607B681B6803F00803002B35
:103CA00009D0124B5B6823F460527B681B69DB0010
:103CB0000E4913434B6000F021F802460B4B5B6842
:103CC0001B0903F00F030A49CB5C22FA03F3094AEC
:103CD0001360094B1B681846FEF700FD00231846C9
:103CE0001037BD4680BD00BF0020024000100240DA
:103CF00014940008040000200800002080B487B05D
:103D000000AF0023FB600023BB6000237B61002326
:103D10007B6000233B611E4B5B68FB60FB6803F02C
:103D20000C03042B02D0082B03D027E0194B3B6176
:103D300027E0FB689B0C03F00F03174AD35C7B6002
:103D4000FB6803F48033002B10D0114B5B685B0CD5
:103D500003F00103114AD35CBB607B680D4A03FB8F
:103D600002F2BB68B2FBF3F37B6104E07B680C4AB0
:103D700002FB03F37B617B693B6102E0054B3B6126
:103D800000BF3B6918461C37BD4680BC704700BF6A
:103D90000010024000127A002C9400083C940008A5
:103DA00000093D0080B400AF024B1B681846BD46B9
:103DB00080BC70470400002080B500AFFFF7F2FF21
:103DC0000246054B5B681B0A03F007030349CB5C03
:103DD00022FA03F3184680BD001002402494000824
:103DE00080B500AFFFF7DEFF0246054B5B68DB0ADC
:103DF00003F007030349CB5C22FA03F3184680BDA6
:103E0000001002402494000880B485B000AF7860B0
:103E10000A4B1B680A4AA2FB03235B0A7A6802FB6F
:103E200003F3FB6000BFFB685A1EFA60002BF9D158
:103E300000BF00BF1437BD4680BC7047040000209F
:103E4000D34D621080B582B000AF78607B68002BE4
:103E500001D1012341E07B6893F83D30DBB2002BB8
:103E600006D17B68002283F83C207868FEF790FA40
:103E70007B68022283F83D207B681A687B680433E4
:103E80001946104600F092F97B68012283F846201B
:103E90007B68012283F83E207B68012283F83F2063
:103EA0007B68012283F840207B68012283F841204F
:103EB0007B68012283F842207B68012283F843203B
:103EC0007B68012283F844207B68012283F8452027
:103ED0007B68012283F83D20002318460837BD4641
:103EE00080BD000080B485B000AF78607B6893F837
:103EF0003D30DBB2012B01D0012332E07B6802228E
:103F000083F83D207B681B68184A93420ED07B687B
:103F10001B68B3F1804F09D07B681B68144A934239
:103F200004D07B681B68134A934211D17B681B68DD
:103F30009B6803F00703FB60FB68062B10D07B68CF
:103F40001B681A687B681B6842F001021A6007E070
:103F50007B681B681A687B681B6842F001021A6064
:103F6000002318461437BD4680BC7047002C014022
:103F7000000400400008004080B485B000AF7860C5
:103F80007B6893F83D30DBB2012B01D001233AE08E
:103F90007B68022283F83D207B681B68DA687B68B7
:103FA0001B6842F00102DA607B681B68184A934282
:103FB0000ED07B681B68B3F1804F09D07B681B680B
:103FC000144A934204D07B681B68134A934211D170
:103FD0007B681B689B6803F00703FB60FB68062B8C
:103FE00010D07B681B681A687B681B6842F001026E
:103FF0001A6007E07B681B681A687B681B6842F0E0
:1040000001021A60002318461437BD4680BC704771
:10401000002C0140000400400008004080B584B03E
:1040200000AF786039600023FB737B6893F83C3005
:10403000012B01D10223B4E07B68012283F83C20EC
:104040007B68022283F83D207B681B689B68BB600D
:10405000BB6823F07703BB60BB6823F47F43BB607E
:104060007B681B68BA689A603B681B68B3F5005FA1
:104070003ED0B3F5005F00F28780B3F5805F00F0BB
:104080008680B3F5805F7FD8702B1AD0702B7BD8D9
:10409000602B50D0602B77D8502B3CD0502B73D84E
:1040A000402B58D0402B6FD8302B64D0302B6BD89E
:1040B000202B60D0202B67D8002B5CD0102B5AD03F
:1040C00062E07B6818683B6899683B685A683B689F
:1040D000DB6800F044F97B681B689B68BB60BB68C9
:1040E00043F07703BB607B681B68BA689A604FE057
:1040F0007B6818683B6899683B685A683B68DB686E
:1041000000F02DF97B681B689A687B681B6842F495
:1041100080429A603CE07B6818683B6859683B685D
:10412000DB681A4600F0A4F87B681B68502118462B
:1041300000F0FBF82CE07B6818683B6859683B6826
:10414000DB681A4600F0C2F87B681B6860211846DD
:1041500000F0EBF81CE07B6818683B6859683B6826
:10416000DB681A4600F084F87B681B68402118461B
:1041700000F0DBF80CE07B681A683B681B681946A6
:10418000104600F0D2F803E00123FB7300E000BF0B
:104190007B68012283F83D207B68002283F83C2065
:1041A000FB7B18461037BD4680BD000080B485B04B
:1041B00000AF786039607B681B68FB607B68294AC8
:1041C00093420BD07B68B3F1804F07D07B68264ABF
:1041D000934203D07B68254A934208D1FB6823F0C1
:1041E0007003FB603B685B68FA681343FB607B68A5
:1041F0001C4A93420BD07B68B3F1804F07D07B6899
:10420000194A934203D07B68184A934208D1FB684D
:1042100023F44073FB603B68DB68FA681343FB6080
:10422000FB6823F080023B685B691343FB607B689B
:10423000FA681A603B689A687B68DA623B681A68B9
:104240007B689A627B68074A934203D13B681A698C
:104250007B681A637B6801225A6100BF1437BD4630
:1042600080BC7047002C0140000400400008004062
:1042700080B487B000AFF860B9607A60FB681B6AF1
:104280007B61FB681B6A23F00102FB681A62FB6812
:104290009B693B613B6923F0F0033B617B681B0139
:1042A0003A6913433B617B6923F00A037B617A69B6
:1042B000BB6813437B61FB683A699A61FB687A6962
:1042C0001A6200BF1C37BD4680BC704780B487B0FF
:1042D00000AFF860B9607A60FB681B6A7B61FB68BD
:1042E0001B6A23F01002FB681A62FB689B693B6142
:1042F0003B6923F470433B617B681B033A691343BA
:104300003B617B6923F0A0037B61BB681B017A6979
:1043100013437B61FB683A699A61FB687A691A62A8
:1043200000BF1C37BD4680BC704780B485B000AF6D
:10433000786039607B689B68FB60FB6823F07003E2
:10434000FB603A68FB68134343F00703FB607B683C
:10435000FA689A6000BF1437BD4680BC704780B4CD
:1043600087B000AFF860B9607A603B60FB689B681B
:104370007B617B6923F47F437B613B681A027B6826
:104380001A43BB6813437A6913437B61FB687A69FC
:104390009A6000BF1C37BD4680BC704780B485B0B2
:1043A00000AF786039607B6893F83C30012B01D115
:1043B000022346E07B68012283F83C207B680222CE
:1043C00083F83D207B681B685B68FB607B681B682B
:1043D0009B68BB60FB6823F07003FB603B681B6855
:1043E000FA681343FB607B681B68FA685A607B6855
:1043F0001B68164A93420ED07B681B68B3F1804F4E
:1044000009D07B681B68124A934204D07B681B6802
:10441000104A93420CD1BB6823F08003BB603B6819
:104420005B68BA681343BB607B681B68BA689A60B4
:104430007B68012283F83D207B68002283F83C20C2
:10444000002318461437BD4680BC7047002C01403D
:10445000000400400008004080B582B000AF7860E2
:104460007B68002B01D1012342E07B6893F8413047
:10447000DBB2002B06D17B68002283F840207868ED
:10448000FDF7B8FF7B68242283F841207B681B6816
:10449000DA687B681B6822F40052DA60786800F002
:1044A0007BF97B681B681A697B681B6822F4904261
:1044B0001A617B681B685A697B681B6822F02A02B4
:1044C0005A617B681B68DA687B681B6842F400529B
:1044D000DA607B6800225A647B68202283F84120DE
:1044E0007B68202283F842207B6800225A630023E5
:1044F00018460837BD4680BD80B58AB002AFF86067
:10450000B9603B601346FB8000237B61FB6893F836
:104510004130DBB2202B6DD1BB68002B02D0FB8871
:10452000002B01D1012366E0FB6800225A64FB687E
:10453000212283F84120FEF713F97861FB68FA889D
:104540009A84FB68FA88DA84FB689B68B3F5805F1D
:1045500008D1FB681B69002B04D10023FB61BB68F9
:10456000BB6103E0BB68FB610023BB612AE03B68E1
:1045700000937B6900228021F86800F065F803460B
:10458000002B01D0032336E0FB69002B0BD1BB6964
:104590001B881A46FB681B68C2F308025A60BB6995
:1045A0000233BB6107E0FB691A78FB681B685A603D
:1045B000FB690133FB61FB68DB8C9BB2013B9AB268
:1045C000FB68DA84FB68DB8C9BB2002BCFD13B68A5
:1045D00000937B6900224021F86800F035F803461B
:1045E000002B01D0032306E0FB68202283F8412042
:1045F000002300E0022318462037BD4680BD80B569
:1046000084B000AFF860B9601346FB80FB6893F894
:104610004230DBB2202B12D1BB68002B02D0FB88CA
:10462000002B01D101230BE0FB6800221A63FB88F9
:104630001A46B968F86800F075F8034600E00223EE
:1046400018461037BD4680BD80B590B000AFF86009
:10465000B9603B601346FB7150E0BB6CB3F1FF3FA8
:104660004CD0BB6C002B07D0FEF77AF802463B68B3
:10467000D31ABA6C9A4241D2FB681B680C33BB62F6
:10468000BB6A53E8003F7B627B6A23F4D073FB6311
:10469000FB681B680C33FA6B7A633B63396B7A6B8C
:1046A00041E80023FB62FB6A002BE5D1FB681B6835
:1046B00014337B617B6953E8003F3B613B6923F026
:1046C0000103BB63FB681B681433BA6B3A62FB617E
:1046D000F9693A6A41E80023BB61BB69002BE5D167
:1046E000FB68202283F84120FB68202283F84220C7
:1046F000FB68002283F8402003230FE0FB681B685F
:104700001A68BB681340BA689A420CBF01230023A1
:10471000DBB21A46FB799A429FD0002318464037F5
:10472000BD4680BD80B485B000AFF860B960134667
:10473000FB80FB68BA689A62FB68FA889A85FB6816
:10474000FA88DA85FB6800225A64FB68222283F823
:104750004220FB681B69002B07D0FB681B68DA68E6
:10476000FB681B6842F48072DA60FB681B685A6958
:10477000FB681B6842F001025A61FB681B68DA683B
:10478000FB681B6842F02002DA60002318461437E9
:10479000BD4680BC7047000080B584B000AF786033
:1047A0007B681B681B6923F440517B68DA687B686F
:1047B0001B680A431A617B689A687B681B691A4305
:1047C0007B685B691343BB607B681B68DB6823F411
:1047D000B05323F00C037A681268B9680B43D360B6
:1047E0007B681B685B6923F440717B689A697B680E
:1047F0001B680A435A617B681B682C4A934203D1A9
:10480000FFF7EEFAF86002E0FFF7D6FAF860FA6810
:1048100013469B0013449A001A447B685B689B0014
:10482000B2FBF3F3224AA2FB03235B091901FA68E6
:1048300013469B0013449A001A447B685B689B00F4
:10484000B2FBF3F21A4BA3FB02035B09642000FBEB
:1048500003F3D31A1B013233154AA2FB03235B096E
:1048600003F0F0031944FA6813469B0013449A00BE
:104870001A447B685B689B00B2FBF3F20C4BA3FB12
:1048800002035B09642000FB03F3D31A1B013233DC
:10489000074AA2FB03235B0903F00F027B681B6836
:1048A0000A449A6000BF1037BD4680BD0038014001
:1048B0001F85EB510A22002100F080B8012B2DE961
:1048C000F0478646904601D0242B06D901F0B0F976
:1048D000162303600020BDE8F0870D4635482A46C0
:1048E00015F8014B065D16F00806F8D12D2C2ED1D7
:1048F00001262C78951C002B57D0102B09D1302C79
:1049000007D12A7802F0DF02582A49D110236C78A7
:104910000235002206F1004C0CF1FF3CBCFBF3F920
:10492000104603FB19CAA4F13007092F14D83C46DE
:10493000A34220DD571C07D0814519D301D1A245E0
:1049400016DB012200FB034015F8014BEBE72B2C93
:1049500004BF2C78951CCEE7A4F14107192F01D88C
:10496000373CE5E7A4F16107192F04D8573CDFE78E
:104970004FF0FF32E8E7531C08D122236046CEF8FF
:104980000030B8F1000FA6D0691E06E006B1404223
:10499000B8F1000F9FD0002AF6D1C8F800109AE7AE
:1049A0003024002BB5D10823B3E7302CA9D00A233B
:1049B000AFE700BF3F940008FFF780BF13460A46E9
:1049C000014602480068FFF779BF00BF6800002079
:1049D000002B2DE9F0471F46BBBF03F100431F46E4
:1049E00000232D2388B01446129A109D1370149B37
:1049F000DDF84CA023F02008B8F1460F05D0B8F13F
:104A0000450F00D10135022300E0032307AA0492D9
:104A100006AACDE902A2CDE9003522463B4601F0C7
:104A2000EFF9B8F1470F064602D1119BDB0722D5FB
:104A3000B8F1460F06EB050910D13378302B0AD1B7
:104A40000022002320463946FCF76CF818B9C5F15E
:104A50000105CAF80050DAF800309944002200231A
:104A600020463946FCF75EF808B1CDF81C9030229C
:104A7000079B4B4507D33046079B159A9B1B13603A
:104A800008B0BDE8F087591C07911A70F0E703469B
:104A9000F7B5002903F8022BB6BF2D222B2249427D
:104AA000092942702ADD0DF1070217460A2691FBFB
:104AB000F6F5944606FB151430340CF8014C0C4600
:104AC000632C294602F1FF32F1DC3031ACF10204F3
:104AD00002F8011C2246411CBA420AD30DF1090218
:104AE000A2EB0C02BC4288BF00221344181A03B088
:104AF000F0BD12F8015B01F8015FEDE730233031C2
:104B00008370C170031DF1E72DE9F04F91B00C46A1
:104B1000DDF8688016461F46054601F03FF8036839
:104B200018460993FBF71EFB00230E93D8F80030BC
:104B30000A90073323F0070303F1080294F8189052
:104B4000D4F800B0C8F80020D3E900A85246434684
:104B5000C4E9122328F000430B934FF0FF32504674
:104B60009C4B0B99FCF710F870BB4FF0FF3250468E
:104B7000984B0B99FBF7EAFF30BB0022002350460D
:104B80004146FBF7D9FF10B12D2384F84330924AF8
:104B9000924BB9F1470F94BF9046984603234FF0CC
:104BA000000A23612BF00403236033462146284684
:104BB00000970FAA00F0D6F9013040F090804FF036
:104BC000FF3011B0BDE8F08F524643465046414693
:104BD000FBF7DAFF48B1B8F1000FB8BF2D23804AC8
:104BE000B8BF84F843307F4BD3E7636809F0DF0137
:104BF0005A1C42D106236360002206920EAACDE918
:104C000004920DAA4BF4806303920DF13302CDE9B7
:104C100001322360636852460093284643460B9155
:104C2000FFF7D6FE0B99804647290D9908D1C81C7D
:104C300002DB6368994240DDA9F102095FFA89F954
:104C4000B9F1650F1FD84A46013904F150000D91A2
:104C5000FFF71DFF0E9A82461318012A236102DC1A
:104C60002268D20701D5013323619DF83330002B30
:104C70009BD02D2384F8433097E74729BCD1002BE4
:104C8000BAD10123B7E7B9F1660F18D100296368DB
:104C90000BDD216113B92268D00702D501330B4423
:104CA00023614FF0000AA165DFE713B92268D2073C
:104CB00001D50233F4E70123F2E74FF067090E9BB9
:104CC000994205DB23682161D807EAD54B1CE7E749
:104CD0000029CCBF0122C1F102021344E0E723689E
:104CE0005A0507D42369424631462846B847013061
:104CF0002BD164E7B9F1650F40F2DD80D4E91201F0
:104D000000220023FBF70EFF002833D00123314699
:104D10002846354AB84701303FF451AFDDE90D234D
:104D20009A4202DB2368D8070FD5DDE90923314613
:104D30002846B84701303FF442AF4FF0000804F175
:104D40001A090E9B013B434509DC23689B0700F1D0
:104D50000481E0680F9B9842B8BF184631E70123F1
:104D60004A4631462846B84701303FF428AF08F19B
:104D70000108E6E70D9B002B38DC0123314628466D
:104D8000194AB84701303FF41AAFDDE90D32134339
:104D900002D12368D907D8D5DDE909233146284651
:104DA000B84701303FF40BAF4FF0000904F11A0A85
:104DB0000D9B5B424B4501DC0E9B94E70123524661
:104DC00031462846B84701303FF4F9AE09F10109F0
:104DD000EEE700BFFFFFEF7F3F9500084395000817
:104DE000479500084B9500084F9500080E9AA36D53
:104DF0009A42A8BF1A46002A914637DC4FF0000BB2
:104E000029EAE97904F11A02D4F858A0AAEB0903B7
:104E10005B4533DCDDE90D239A423BDB2368DA078F
:104E200038D4DDE90D32A2EB0309A2EB0A02914569
:104E3000A8BF9146B9F1000F34DC4FF0000829EA11
:104E4000E97904F11A0ADDE90D239B1AA3EB0903A2
:104E500043457FF77AAF0123524631462846B8478B
:104E600001303FF4ACAE08F10108ECE713463146DF
:104E700042462846B8470130C0D1A0E6012331465A
:104E800028460B92B84701303FF499AE0B9A0BF1CC
:104E9000010BB9E73146DDE909232846B84701305F
:104EA000BFD18CE64B463146284608EB0A02B8478C
:104EB0000130C2D183E60E9A012A01DCDB0739D525
:104EC0000123424631462846B84701303FF477AEC9
:104ED000DDE9092331462846B84701303FF46FAE7B
:104EE000D4E9120100220023DDF83890FBF71AFE06
:104EF000D8B909F1FF3308F1010231462846B84715
:104F000001300ED15BE601234A4631462846B847B8
:104F100001303FF454AE08F101080E9B013B4345BC
:104F2000F1DC534604F15002DEE64FF0000804F1D4
:104F30001A09F2E701234246DFE701234A463146D8
:104F40002846B84701303FF43AAE08F10108E3685B
:104F50000F995B1A4345F0DCFBE64FF0000804F1C3
:104F60001909F4E72DE9F047164699468A680B6956
:104F700007469342B8BF1346336091F843200C466E
:104F8000DDF820800AB1013333602368990642BFFF
:104F9000336802333360256815F0060506D104F145
:104FA000190AE36832689B1AAB422BDC94F8432061
:104FB000131E226818BF0123920630D44946384692
:104FC00004F14302C047013023D02368226903F073
:104FD0000603042B14BF002533684FF0000608BFFA
:104FE000E56804F11A0408BFED1A54F8123C08BF32
:104FF00025EAE5759342C4BF9B1AED18B5421AD154
:10500000002008E00123524649463846C047013097
:1050100003D14FF0FF30BDE8F0870135C1E7302004
:10502000E11881F843005A1C94F8451022440233D9
:1050300082F84310C2E70123224649463846C0475A
:105040000130E6D00136D9E72DE9FF470F7E9146C2
:10505000782F80460C469A460C9D01F1430207D8F2
:10506000622F0AD8002F00F0D580582F00F0C180A1
:1050700004F1420584F842703AE0A7F16303152B6E
:10508000F6D801A151F823F0E1500008F5500008CE
:1050900071500008715000087150000871500008EC
:1050A000F550000871500008715000087150000858
:1050B00071500008FB51000821510008B55100084B
:1050C00071500008715000081D520008715000080E
:1050D000215100087150000871500008BD510008AE
:1050E0002B681A1D1B682A6004F1420584F84230BF
:1050F0000123A0E020682B68070603F10401296062
:1051000001D51E6803E04606FBD5B3F90060002E0A
:1051100003DA2D23764284F843300A23594812E0FB
:105120002B682068191D2960050601D51E6802E05C
:105130004106FBD51E886F2F0CBF08230A23514858
:10514000002184F843106568002DA8BF2168A56080
:10515000A4BF21F0040121600EB9002D4BD01546EB
:10516000B6FBF3F103FB1167C75D05F8017D374618
:10517000BB420E46F4D9082B0BD12368DE0708D5B5
:10518000236961689942DEBF302305F8013C05F1CF
:10519000FF35521B22614B4621464046CDF800A008
:1051A00003AAFFF7DFFE01304AD14FF0FF3004B011
:1051B000BDE8F087236843F0200323607827324856
:1051C00084F84570236829681F0651F8046B02D4DF
:1051D0005F0648BFB6B2DF0748BF43F0200329602F
:1051E00048BF23601EB9236823F0200323601023E7
:1051F000A6E72448E4E71546BDE72B682668181D96
:105200006169286035061B6801D5196002E07006E7
:10521000FBD51980002315462361BCE72B680021CC
:105220001A1D2A601D686268284600F02DFD08B12D
:10523000401B606063682361002384F84330AAE761
:105240002A46494640462369D0470130ADD02368FD
:105250009B0713D4E068039B9842B8BF1846A6E7A3
:105260000123324649464046D04701309DD00135A2
:10527000E36803995B1AAB42F2DCEBE7002504F12B
:105280001906F5E751950008629500082DE9F04FE1
:1052900087B003938B6817465A1EB2F5AE7F85BF61
:1052A0006FF4AE755B190023029388BF40F25D1363
:1052B0008B464FF000058CBF8B6002930B688046D5
:1052C00043F4F0634BF81C3B0C465E46AA46A946E5
:1052D000CDE904550195A26852B13B681B784E2B6D
:1052E00064D8402B3CD8A3F12B01C8B20E283AD980
:1052F000B9F1000F03D0236823F4807323600AF10F
:10530000FF3ABAF1010F00F213815E4500F2058108
:105310000125284607B0BDE8F08FA3F161020D2AF0
:10532000E6D801A151F822F067540008F1520008B4
:10533000F1520008F1520008C75400089F540008B9
:10534000F1520008F152000875540008F1520008AB
:10535000F1520008F1520008F15200082D540008E3
:10536000A3F14102DBE70E29C2D801A050F821F0D9
:105370001F540008F15200081F540008B3540008DD
:10538000F1520008CD5300080954000809540008E0
:105390000954000809540008095400080954000879
:1053A0000954000809540008095400086E2B09D854
:1053B000602BB2D8542B77D0592B99D1072D97D188
:1053C000082529E0742B6FD0792BF6E72168C805F2
:1053D0001AD5029B21F08001216009F101091BB15E
:1053E000013B01320293A260A368013BA3602369E1
:1053F000013323617B68013B002B7B6040F3848099
:105400003B6801333B6066E71AEB050F7FF470AF32
:10541000226822F4C072226006F8013BE4E72268A9
:1054200010067FF565AF22F08002F4E7BAF1000FB5
:105430000ED1B9F1000F0ED1226802F4E061B1F58E
:10544000E06F08D122F4F0624FF0010A2260E3E736
:10545000BAF1020F55D0012D02D0042D7FF448AFD0
:105460000135EDB2D8E7BAF1010F7FF441AF4FF04B
:10547000020AD1E77DB9B9F1000F7FF43CAF226891
:1054800002F4E061B1F5E06F7FF439AF22F4F0622D
:1054900001252260C0E7032DE2D0052DDEE7022DB5
:1054A0007FF426AF0325B7E7062D7FF421AF07254C
:1054B000B2E7226891057FF51BAF22F420722260CB
:1054C000CDF80490A8E7226802F4A061B1F5806FDE
:1054D00006D050057FF50CAFB9F1000F3FF40FAFC8
:1054E000910558BF019922F4F06258BFA9EB010160
:1054F00042F4C0724FF0000958BFCDE90416226093
:105500008AE74FF0030A87E739464046D4F88031EE
:10551000984700283FF4DFAEEAE6D4F87C313A46FB
:10552000404616F8011D98472369013B2361ECE6CC
:105530006B1E062B25D8022D36D85E457FF6E8AEC9
:10554000D4F87C313A46404616F8011D9847236945
:10555000013B2361F1E70298D4F87C3110F8011D7A
:105560003A460290404698472369013B23610AF17D
:10557000FF3A5FFA8AFABAF1020FECD1033DEDB2BD
:10558000761B2368DA052FD55B0510D55E457FF6BF
:10559000BFAED4F87C313A46404616F8011D984714
:1055A0002369013B2361F1E7AA460296DFE716F87B
:1055B000011C2369652903F1FF3306F1FF352361DF
:1055C0000CD045290AD0D4F87C313A464046984759
:1055D000236916F8021C013BB51E23613A4640467A
:1055E000D4F87C3198472E46256815F0100555D122
:1055F0003570236803F4C063B3F5806F1DD1019B40
:105600004B45A3EB090225D100225946404602F042
:105610008BFD039BD4F800C01B681CF0020F0646EC
:105620000F4603F1040220D003990A601B68C3E906
:105630000067E3680133E3606BE6049B002BE3D073
:1056400005990A232A4640460131FFF7B5F9049B24
:10565000059EC21A04F26F139E4228BF04F5B77666
:1056600030460F4900F03EF9CEE71CF0040FDBD1C5
:10567000DDF80CC0CCF80020D3F8008002460B46C1
:10568000FBF782FA28B1074800F00CFBC8F80000CD
:10569000CFE730463946FBF7D5FAF7E7002538E67D
:1056A0007395000824960008002310B50446C0E94D
:1056B0000033C0E90433836081814366C281836122
:1056C000194608225C3000F005FA054B246263623B
:1056D000044BA362044BE362044B236310BD00BF81
:1056E00025590008475900087F590008A3590008A8
:1056F000024A0349034800F069B800BF10000020C7
:105700006D8700081C00002041680C4B10B59942C1
:10571000044601D003F02AF8A168094B994202D04F
:10572000204603F023F8E168064B994204D0204656
:10573000BDE8104003F01AB810BD00BF00040020FF
:1057400068040020D004002010B50B4B0B4C0C4A11
:1057500020461A6004210022FFF7A6FF04F168002A
:1057600001220921FFF7A0FF04F1D0000222BDE8C9
:1057700010401221FFF798BF3805002000040020D8
:10578000F1560008014800F07DBA00BF4105002035
:10579000014800F078BA00BF4105002010B504466A
:1057A000FFF7F0FF236A1BB1BDE81040FFF7F0BF21
:1057B000044B2362044B1B68002BF5D1FFF7C4FF99
:1057C000F2E700BF09570008380500202DE9F8432B
:1057D0000746884614460026D4E90195B9F1010927
:1057E00005D52468002CF7D13046BDE8F883AB8995
:1057F000012B07D9B5F90E30013303D029463846BD
:10580000C04706436835E9E70FB407B5064904AB5E
:10581000086853F8042B8168019302F00BFE03B073
:105820005DF804EB04B0704768000020036A70B5AF
:1058300005460E4684680BB9FFF7B0FF636EDB07C1
:1058400005D4A389980502D4A06D00F01BFAA389A2
:10585000190713D523698BB1013EA36816F8011F00
:10586000013BA360E9B9002B2EDA22460A21284623
:1058700000F09BF8013007D00A2507E021462846B2
:1058800000F0D0F80028E7D04FF0FF35636EDA075C
:1058900005D4A3899B0502D4A06D00F0F4F9284635
:1058A00070BD002B04DAA2699A4206DC0A2904D0F2
:1058B00023685A1C22601970CFE72246284600F060
:1058C00074F80130C9D1DFE70A2523685A1C226029
:1058D0001D70DBE7024B01461868FFF7A7BF00BF4A
:1058E000680000200EB46FF0004100B59CB01DAB05
:1058F00002900690079104910848094953F8042B37
:105900000591006802A9019302F06EFC0022029B3F
:105910001A701CB05DF804EB03B0704768000020FB
:105920000802FFFF10B50C46B1F90E1000F05CF94B
:105930000028ABBF636DA3891B1823F48053ACBF51
:105940006365A38110BD2DE9F0411F468B89054693
:10595000DB050C46164605D502230022B1F90E10D0
:1059600000F030F9A389324623F48053A3812846FE
:105970003B46B4F90E10BDE8F04100F047B910B550
:105980000C46B1F90E1000F01DF9431CA38915BF98
:10599000606523F4805343F48053A38118BFA3812F
:1059A00010BDB1F90E1000F0FDB8F8B50E46144662
:1059B000054618B1036A0BB9FFF7F0FEA369A360AF
:1059C000A3891A0725D523691BB323682269F6B278
:1059D000981A63693746834204DC2146284602F060
:1059E000C5FEE0B9A368013BA36023685A1C22608E
:1059F0001E706269431C9A4204D0A389DB0706D556
:105A00000A2E04D12146284602F0B0FE38B93846A5
:105A1000F8BD2146284600F005F80028D5D04FF003
:105A2000FF37F4E738B52A4B054618680C4618B11D
:105A3000036A0BB9FFF7B2FEA389B4F90C2018076B
:105A400022D4D90607D409232B6042F040034FF03B
:105A5000FF30A38134E0580712D5616B41B104F1E6
:105A60004403994202D0284600F0AEFF002363634E
:105A7000A38923F02403A3810023636023692360A7
:105A8000A38943F00803A38123694BB9A38903F4D5
:105A90002073B3F5007F03D02146284602F0C5FEEF
:105AA000A089B4F90C2010F001030AD00023A360F0
:105AB00063695B42A361236943B910F08000C4D1DC
:105AC00038BD810758BF6369A360F4E70020F7E79A
:105AD0006800002003460244934200D1704703F857
